{
  "contractName": "StarNotary",
  "abi": [
    {
      "constant": true,
      "inputs": [
        {
          "name": "interfaceId",
          "type": "bytes4"
        }
      ],
      "name": "supportsInterface",
      "outputs": [
        {
          "name": "",
          "type": "bool"
        }
      ],
      "payable": false,
      "stateMutability": "view",
      "type": "function"
    },
    {
      "constant": true,
      "inputs": [
        {
          "name": "",
          "type": "uint256"
        }
      ],
      "name": "starsForSale",
      "outputs": [
        {
          "name": "",
          "type": "uint256"
        }
      ],
      "payable": false,
      "stateMutability": "view",
      "type": "function"
    },
    {
      "constant": true,
      "inputs": [
        {
          "name": "tokenId",
          "type": "uint256"
        }
      ],
      "name": "getApproved",
      "outputs": [
        {
          "name": "",
          "type": "address"
        }
      ],
      "payable": false,
      "stateMutability": "view",
      "type": "function"
    },
    {
      "constant": false,
      "inputs": [
        {
          "name": "to",
          "type": "address"
        },
        {
          "name": "tokenId",
          "type": "uint256"
        }
      ],
      "name": "approve",
      "outputs": [],
      "payable": false,
      "stateMutability": "nonpayable",
      "type": "function"
    },
    {
      "constant": true,
      "inputs": [
        {
          "name": "",
          "type": "uint256"
        }
      ],
      "name": "starIdToStarInfo",
      "outputs": [
        {
          "name": "name",
          "type": "string"
        },
        {
          "name": "story",
          "type": "string"
        },
        {
          "name": "cent",
          "type": "string"
        },
        {
          "name": "dec",
          "type": "string"
        },
        {
          "name": "mag",
          "type": "string"
        }
      ],
      "payable": false,
      "stateMutability": "view",
      "type": "function"
    },
    {
      "constant": false,
      "inputs": [
        {
          "name": "from",
          "type": "address"
        },
        {
          "name": "to",
          "type": "address"
        },
        {
          "name": "tokenId",
          "type": "uint256"
        }
      ],
      "name": "transferFrom",
      "outputs": [],
      "payable": false,
      "stateMutability": "nonpayable",
      "type": "function"
    },
    {
      "constant": false,
      "inputs": [
        {
          "name": "from",
          "type": "address"
        },
        {
          "name": "to",
          "type": "address"
        },
        {
          "name": "tokenId",
          "type": "uint256"
        }
      ],
      "name": "safeTransferFrom",
      "outputs": [],
      "payable": false,
      "stateMutability": "nonpayable",
      "type": "function"
    },
    {
      "constant": true,
      "inputs": [
        {
          "name": "tokenId",
          "type": "uint256"
        }
      ],
      "name": "ownerOf",
      "outputs": [
        {
          "name": "",
          "type": "address"
        }
      ],
      "payable": false,
      "stateMutability": "view",
      "type": "function"
    },
    {
      "constant": true,
      "inputs": [
        {
          "name": "owner",
          "type": "address"
        }
      ],
      "name": "balanceOf",
      "outputs": [
        {
          "name": "",
          "type": "uint256"
        }
      ],
      "payable": false,
      "stateMutability": "view",
      "type": "function"
    },
    {
      "constant": false,
      "inputs": [
        {
          "name": "to",
          "type": "address"
        },
        {
          "name": "approved",
          "type": "bool"
        }
      ],
      "name": "setApprovalForAll",
      "outputs": [],
      "payable": false,
      "stateMutability": "nonpayable",
      "type": "function"
    },
    {
      "constant": false,
      "inputs": [
        {
          "name": "from",
          "type": "address"
        },
        {
          "name": "to",
          "type": "address"
        },
        {
          "name": "tokenId",
          "type": "uint256"
        },
        {
          "name": "_data",
          "type": "bytes"
        }
      ],
      "name": "safeTransferFrom",
      "outputs": [],
      "payable": false,
      "stateMutability": "nonpayable",
      "type": "function"
    },
    {
      "constant": true,
      "inputs": [
        {
          "name": "owner",
          "type": "address"
        },
        {
          "name": "operator",
          "type": "address"
        }
      ],
      "name": "isApprovedForAll",
      "outputs": [
        {
          "name": "",
          "type": "bool"
        }
      ],
      "payable": false,
      "stateMutability": "view",
      "type": "function"
    },
    {
      "anonymous": false,
      "inputs": [
        {
          "indexed": false,
          "name": "owner",
          "type": "address"
        }
      ],
      "name": "starClaimed",
      "type": "event"
    },
    {
      "anonymous": false,
      "inputs": [
        {
          "indexed": true,
          "name": "from",
          "type": "address"
        },
        {
          "indexed": true,
          "name": "to",
          "type": "address"
        },
        {
          "indexed": true,
          "name": "tokenId",
          "type": "uint256"
        }
      ],
      "name": "Transfer",
      "type": "event"
    },
    {
      "anonymous": false,
      "inputs": [
        {
          "indexed": true,
          "name": "owner",
          "type": "address"
        },
        {
          "indexed": true,
          "name": "approved",
          "type": "address"
        },
        {
          "indexed": true,
          "name": "tokenId",
          "type": "uint256"
        }
      ],
      "name": "Approval",
      "type": "event"
    },
    {
      "anonymous": false,
      "inputs": [
        {
          "indexed": true,
          "name": "owner",
          "type": "address"
        },
        {
          "indexed": true,
          "name": "operator",
          "type": "address"
        },
        {
          "indexed": false,
          "name": "approved",
          "type": "bool"
        }
      ],
      "name": "ApprovalForAll",
      "type": "event"
    },
    {
      "constant": false,
      "inputs": [
        {
          "name": "_name",
          "type": "string"
        },
        {
          "name": "_story",
          "type": "string"
        },
        {
          "name": "_cent",
          "type": "string"
        },
        {
          "name": "_dec",
          "type": "string"
        },
        {
          "name": "_mag",
          "type": "string"
        },
        {
          "name": "_tokenId",
          "type": "uint256"
        }
      ],
      "name": "createStar",
      "outputs": [],
      "payable": false,
      "stateMutability": "nonpayable",
      "type": "function"
    },
    {
      "constant": true,
      "inputs": [],
      "name": "getCount",
      "outputs": [
        {
          "name": "",
          "type": "uint256"
        }
      ],
      "payable": false,
      "stateMutability": "view",
      "type": "function"
    },
    {
      "constant": true,
      "inputs": [
        {
          "name": "_dec",
          "type": "string"
        },
        {
          "name": "_mag",
          "type": "string"
        },
        {
          "name": "_cent",
          "type": "string"
        }
      ],
      "name": "checkIfStarExist",
      "outputs": [
        {
          "name": "",
          "type": "bool"
        }
      ],
      "payable": false,
      "stateMutability": "view",
      "type": "function"
    },
    {
      "constant": false,
      "inputs": [
        {
          "name": "_tokenId",
          "type": "uint256"
        },
        {
          "name": "_price",
          "type": "uint256"
        }
      ],
      "name": "putStarUpForSale",
      "outputs": [],
      "payable": false,
      "stateMutability": "nonpayable",
      "type": "function"
    },
    {
      "constant": false,
      "inputs": [
        {
          "name": "_tokenId",
          "type": "uint256"
        }
      ],
      "name": "buyStar",
      "outputs": [],
      "payable": true,
      "stateMutability": "payable",
      "type": "function"
    },
    {
      "constant": false,
      "inputs": [
        {
          "name": "_tokenId",
          "type": "uint256"
        }
      ],
      "name": "claimStar",
      "outputs": [],
      "payable": false,
      "stateMutability": "nonpayable",
      "type": "function"
    }
  ],
  "bytecode": "0x6080604052600060085561003b7f01ffc9a700000000000000000000000000000000000000000000000000000000640100000000610072810204565b61006d7f80ac58cd00000000000000000000000000000000000000000000000000000000640100000000610072810204565b6100de565b7fffffffff0000000000000000000000000000000000000000000000000000000080821614156100a157600080fd5b7fffffffff00000000000000000000000000000000000000000000000000000000166000908152602081905260409020805460ff19166001179055565b611988806100ed6000396000f3006080604052600436106100e25763ffffffff60e060020a60003504166301ffc9a781146100e75780630384153d146101325780630564b13014610207578063081812fc14610231578063095ea7b3146102655780631d24a90b1461028b57806323b872dd146104b35780632f1c34ef146104dd578063316a4361146104e857806342842e0e146105035780636352211e1461052d57806370a0823114610545578063a22cb46514610566578063a87d942c1461058c578063b250ced0146105a1578063b88d4fde146106f4578063e985e9c514610763578063f89c32541461078a575b600080fd5b3480156100f357600080fd5b5061011e7bffffffffffffffffffffffffffffffffffffffffffffffffffffffff19600435166107a2565b604080519115158252519081900360200190f35b34801561013e57600080fd5b506040805160206004803580820135601f810184900484028501840190955284845261011e94369492936024939284019190819084018382808284375050604080516020601f89358b018035918201839004830284018301909452808352979a99988101979196509182019450925082915084018382808284375050604080516020601f89358b018035918201839004830284018301909452808352979a9998810197919650918201945092508291508401838280828437509497506107d69650505050505050565b34801561021357600080fd5b5061021f6004356107ff565b60408051918252519081900360200190f35b34801561023d57600080fd5b50610249600435610811565b60408051600160a060020a039092168252519081900360200190f35b34801561027157600080fd5b50610289600160a060020a0360043516602435610843565b005b34801561029757600080fd5b506102a36004356108f9565b60405180806020018060200180602001806020018060200186810386528b818151815260200191508051906020019080838360005b838110156102f05781810151838201526020016102d8565b50505050905090810190601f16801561031d5780820380516001836020036101000a031916815260200191505b5086810385528a5181528a516020918201918c019080838360005b83811015610350578181015183820152602001610338565b50505050905090810190601f16801561037d5780820380516001836020036101000a031916815260200191505b5086810384528951815289516020918201918b019080838360005b838110156103b0578181015183820152602001610398565b50505050905090810190601f1680156103dd5780820380516001836020036101000a031916815260200191505b5086810383528851815288516020918201918a019080838360005b838110156104105781810151838201526020016103f8565b50505050905090810190601f16801561043d5780820380516001836020036101000a031916815260200191505b50868103825287518152875160209182019189019080838360005b83811015610470578181015183820152602001610458565b50505050905090810190601f16801561049d5780820380516001836020036101000a031916815260200191505b509a505050505050505050505060405180910390f35b3480156104bf57600080fd5b50610289600160a060020a0360043581169060243516604435610bea565b610289600435610c78565b3480156104f457600080fd5b50610289600435602435610db7565b34801561050f57600080fd5b50610289600160a060020a0360043581169060243516604435610e5b565b34801561053957600080fd5b50610249600435610e77565b34801561055157600080fd5b5061021f600160a060020a0360043516610ea1565b34801561057257600080fd5b50610289600160a060020a03600435166024351515610ed4565b34801561059857600080fd5b5061021f610f58565b3480156105ad57600080fd5b506040805160206004803580820135601f810184900484028501840190955284845261028994369492936024939284019190819084018382808284375050604080516020601f89358b018035918201839004830284018301909452808352979a99988101979196509182019450925082915084018382808284375050604080516020601f89358b018035918201839004830284018301909452808352979a99988101979196509182019450925082915084018382808284375050604080516020601f89358b018035918201839004830284018301909452808352979a99988101979196509182019450925082915084018382808284375050604080516020601f89358b018035918201839004830284018301909452808352979a9998810197919650918201945092508291508401838280828437509497505093359450610f5f9350505050565b34801561070057600080fd5b50604080516020601f60643560048181013592830184900484028501840190955281845261028994600160a060020a0381358116956024803590921695604435953695608494019181908401838280828437509497506110de9650505050505050565b34801561076f57600080fd5b5061011e600160a060020a0360043581169060243516611100565b34801561079657600080fd5b5061028960043561112e565b7bffffffffffffffffffffffffffffffffffffffffffffffffffffffff191660009081526020819052604090205460ff1690565b6000806107e485858561130c565b60009081526007602052604090205460ff1695945050505050565b60066020526000908152604090205481565b600061081c8261146c565b151561082757600080fd5b50600090815260026020526040902054600160a060020a031690565b600061084e82610e77565b9050600160a060020a03838116908216141561086957600080fd5b33600160a060020a038216148061088557506108858133611100565b151561089057600080fd5b600082815260026020526040808220805473ffffffffffffffffffffffffffffffffffffffff1916600160a060020a0387811691821790925591518593918516917f8c5be1e5ebec7d5bd14f71427d1e84f3dd0314c0f7b2291e5b200ac8c7c3b92591a4505050565b60056020908152600091825260409182902080548351601f600260001961010060018616150201909316929092049182018490048402810184019094528084529092918391908301828280156109905780601f1061096557610100808354040283529160200191610990565b820191906000526020600020905b81548152906001019060200180831161097357829003601f168201915b505050505090806001018054600181600116156101000203166002900480601f016020809104026020016040519081016040528092919081815260200182805460018160011615610100020316600290048015610a2e5780601f10610a0357610100808354040283529160200191610a2e565b820191906000526020600020905b815481529060010190602001808311610a1157829003601f168201915b50505060028085018054604080516020601f6000196101006001871615020190941695909504928301859004850281018501909152818152959695945090925090830182828015610ac05780601f10610a9557610100808354040283529160200191610ac0565b820191906000526020600020905b815481529060010190602001808311610aa357829003601f168201915b5050505060038301805460408051602060026001851615610100026000190190941693909304601f8101849004840282018401909252818152949594935090830182828015610b505780601f10610b2557610100808354040283529160200191610b50565b820191906000526020600020905b815481529060010190602001808311610b3357829003601f168201915b5050505060048301805460408051602060026001851615610100026000190190941693909304601f8101849004840282018401909252818152949594935090830182828015610be05780601f10610bb557610100808354040283529160200191610be0565b820191906000526020600020905b815481529060010190602001808311610bc357829003601f168201915b5050505050905085565b610bf43382611489565b1515610bff57600080fd5b600160a060020a0382161515610c1457600080fd5b610c1e83826114e8565b610c288382611559565b610c3282826115ef565b8082600160a060020a031684600160a060020a03167fddf252ad1be2c89b69c2b068fc378daa952ba7f163c4a11628f55a4df523b3ef60405160405180910390a4505050565b60008181526006602052604081205481908110610c9457600080fd5b6006600084815260200190815260200160002054915030600160a060020a0316636352211e846040518263ffffffff1660e060020a02815260040180828152602001915050602060405180830381600087803b158015610cf357600080fd5b505af1158015610d07573d6000803e3d6000fd5b505050506040513d6020811015610d1d57600080fd5b5051905034821115610d2e57600080fd5b610d388184611559565b610d4233846115ef565b604051600160a060020a0382169083156108fc029084906000818181858888f19350505050158015610d78573d6000803e3d6000fd5b5081341115610db25760405133903484900380156108fc02916000818181858888f19350505050158015610db0573d6000803e3d6000fd5b505b505050565b33600160a060020a031630600160a060020a0316636352211e846040518263ffffffff1660e060020a02815260040180828152602001915050602060405180830381600087803b158015610e0a57600080fd5b505af1158015610e1e573d6000803e3d6000fd5b505050506040513d6020811015610e3457600080fd5b5051600160a060020a031614610e4957600080fd5b60009182526006602052604090912055565b610db283838360206040519081016040528060008152506110de565b600081815260016020526040812054600160a060020a0316801515610e9b57600080fd5b92915050565b6000600160a060020a0382161515610eb857600080fd5b50600160a060020a031660009081526003602052604090205490565b600160a060020a038216331415610eea57600080fd5b336000818152600460209081526040808320600160a060020a03871680855290835292819020805460ff1916861515908117909155815190815290519293927f17307eab39ab6107e8899845ad3d59bd9653f200f220920489ca2b5937696c31929181900390910190a35050565b6008545b90565b6000610f69611894565b610f748686866107d6565b15610fe057604080517f08c379a000000000000000000000000000000000000000000000000000000000815260206004820152600c60248201527f5374617220657869737473210000000000000000000000000000000000000000604482015290519081900360640190fd5b610feb86868661130c565b6000818152600760209081526040808320805460ff19166001179055805160a0810182528c81528083018c90528082018b9052606081018a90526080810189905287845260058352922082518051949650929450849390926110519284929101906118c4565b50602082810151805161106a92600185019201906118c4565b50604082015180516110869160028401916020909101906118c4565b50606082015180516110a29160038401916020909101906118c4565b50608082015180516110be9160048401916020909101906118c4565b5050600880546001019055506110d4338461167f565b5050505050505050565b6110e9848484610bea565b6110f5848484846116da565b1515610db057600080fd5b600160a060020a03918216600090815260046020908152604080832093909416825291909152205460ff1690565b600030600160a060020a0316636352211e836040518263ffffffff1660e060020a02815260040180828152602001915050602060405180830381600087803b15801561117957600080fd5b505af115801561118d573d6000803e3d6000fd5b505050506040513d60208110156111a357600080fd5b50519050600160a060020a03811633141561121f57604080517f08c379a000000000000000000000000000000000000000000000000000000000815260206004820152601960248201527f596f7520616c7265616479206f776e2074686520537461722100000000000000604482015290519081900360640190fd5b60008281526006602052604081205411156112c157604080517f08c379a000000000000000000000000000000000000000000000000000000000815260206004820152602860248201527f537461722069732070757420746f2073656c6c2120596f752063616e2774206360448201527f6c61696d20697421000000000000000000000000000000000000000000000000606482015290519081900360840190fd5b6112cb8183611559565b6112d533836115ef565b6040805133815290517feb7b62b344bb3f85b6845f47ddc7878c8fc9946b9c4a4aacbd5274c883e9b66a9181900360200190a15050565b60008383836040516020018084805190602001908083835b602083106113435780518252601f199092019160209182019101611324565b51815160209384036101000a600019018019909216911617905286519190930192860191508083835b6020831061138b5780518252601f19909201916020918201910161136c565b51815160209384036101000a600019018019909216911617905285519190930192850191508083835b602083106113d35780518252601f1990920191602091820191016113b4565b6001836020036101000a03801982511681845116808217855250505050505090500193505050506040516020818303038152906040526040518082805190602001908083835b602083106114385780518252601f199092019160209182019101611419565b5181516020939093036101000a60001901801990911692169190911790526040519201829003909120979650505050505050565b600090815260016020526040902054600160a060020a0316151590565b60008061149583610e77565b905080600160a060020a031684600160a060020a031614806114d0575083600160a060020a03166114c584610811565b600160a060020a0316145b806114e057506114e08185611100565b949350505050565b81600160a060020a03166114fb82610e77565b600160a060020a03161461150e57600080fd5b600081815260026020526040902054600160a060020a031615611555576000818152600260205260409020805473ffffffffffffffffffffffffffffffffffffffff191690555b5050565b81600160a060020a031661156c82610e77565b600160a060020a03161461157f57600080fd5b600160a060020a0382166000908152600360205260409020546115a990600163ffffffff61185c16565b600160a060020a03909216600090815260036020908152604080832094909455918152600190915220805473ffffffffffffffffffffffffffffffffffffffff19169055565b600081815260016020526040902054600160a060020a03161561161157600080fd5b6000818152600160208181526040808420805473ffffffffffffffffffffffffffffffffffffffff1916600160a060020a038816908117909155845260039091529091205461165f91611873565b600160a060020a0390921660009081526003602052604090209190915550565b600160a060020a038216151561169457600080fd5b61169e82826115ef565b6040518190600160a060020a038416906000907fddf252ad1be2c89b69c2b068fc378daa952ba7f163c4a11628f55a4df523b3ef908290a45050565b6000806116ef85600160a060020a031661188c565b15156116fe5760019150611853565b6040517f150b7a020000000000000000000000000000000000000000000000000000000081523360048201818152600160a060020a03898116602485015260448401889052608060648501908152875160848601528751918a169463150b7a0294938c938b938b93909160a490910190602085019080838360005b83811015611791578181015183820152602001611779565b50505050905090810190601f1680156117be5780820380516001836020036101000a031916815260200191505b5095505050505050602060405180830381600087803b1580156117e057600080fd5b505af11580156117f4573d6000803e3d6000fd5b505050506040513d602081101561180a57600080fd5b50517bffffffffffffffffffffffffffffffffffffffffffffffffffffffff1981167f150b7a020000000000000000000000000000000000000000000000000000000014925090505b50949350505050565b6000808383111561186c57600080fd5b5050900390565b60008282018381101561188557600080fd5b9392505050565b6000903b1190565b60a06040519081016040528060608152602001606081526020016060815260200160608152602001606081525090565b828054600181600116156101000203166002900490600052602060002090601f016020900481019282601f1061190557805160ff1916838001178555611932565b82800160010185558215611932579182015b82811115611932578251825591602001919060010190611917565b5061193e929150611942565b5090565b610f5c91905b8082111561193e57600081556001016119485600a165627a7a7230582082404b3b561bcc9c344fc915b38eff72d8ec5b63cde03f8c2baeae4d89e808140029",
  "source": "pragma solidity ^0.4.24;\n\nimport \"openzeppelin-solidity/contracts/token/ERC721/ERC721.sol\";\n\ncontract StarNotary is ERC721 {\n\n    struct Star {\n        string name;\n        string story;\n        string cent;\n        string dec;\n        string mag;\n    }\n\n    mapping(uint256 => Star) public starIdToStarInfo;\n    mapping(uint256 => uint256) public starsForSale;\n    mapping(uint256 => bool) _starExists;\n    uint256 private _count = 0;\n\n    event starClaimed(address owner);\n\n    function createStar(string _name, string _story, string _cent, string _dec, string _mag, uint256 _tokenId)\n    public {\n\n        require(!checkIfStarExist(_cent, _dec, _mag), \"Star exists!\");\n        uint256 starHash = _genHash(_cent, _dec, _mag);\n        _starExists[starHash] = true;\n\n        Star memory newStar = Star(_name, _story, _cent, _dec, _mag);\n        starIdToStarInfo[_tokenId] = newStar;\n        _count = _count + 1;\n\n        _mint(msg.sender, _tokenId);\n    }\n\n    function _genHash(string _dec, string _mag, string _cent)\n    private pure returns (uint256) {\n        return uint256(keccak256(abi.encodePacked(_dec, _mag, _cent)));\n    }\n\n    function getCount()\n    public view returns (uint256) {\n        return _count;\n    }\n\n\n    function checkIfStarExist(string _dec, string _mag, string _cent)\n    public view returns (bool) {\n        uint256 starHash = _genHash(_dec, _mag, _cent);\n        return (_starExists[starHash]);\n    }\n\n    function putStarUpForSale(uint256 _tokenId, uint256 _price) public {\n        require(this.ownerOf(_tokenId) == msg.sender);\n        starsForSale[_tokenId] = _price;\n    }\n\n    function buyStar(uint256 _tokenId) public payable {\n        require(starsForSale[_tokenId] > 0);\n\n        uint256 starCost = starsForSale[_tokenId];\n        address starOwner = this.ownerOf(_tokenId);\n        require(msg.value >= starCost);\n\n        _removeTokenFrom(starOwner, _tokenId);\n        _addTokenTo(msg.sender, _tokenId);\n\n        starOwner.transfer(starCost);\n\n        if (msg.value > starCost) {\n            msg.sender.transfer(msg.value - starCost);\n        }\n    }\n\n    function claimStar(uint256 _tokenId) public {\n        address starOwner = this.ownerOf(_tokenId);\n\n        require(starOwner != msg.sender, \"You already own the Star!\");\n        require(!(starsForSale[_tokenId] > 0), \"Star is put to sell! You can't claim it!\");\n\n        _removeTokenFrom(starOwner, _tokenId);\n        _addTokenTo(msg.sender, _tokenId);\n\n        emit starClaimed(msg.sender);\n    }\n}",
  "sourcePath": "/Users/stefanzils/bitbucket/udacity-projects/project5/smart_contracts/contracts/StarNotary.sol",
  "compiler": {
    "name": "solc",
    "version": "0.4.25+commit.59dbf8f1.Emscripten.clang"
  },
  "schemaVersion": "2.0.2",
  "updatedAt": "2018-12-25T21:14:07.140Z"
}